:100000000C9494000C94B1000C94B1000C94B100C9
:100010000C94B1000C94BB040C94B1000C94B1008E
:100020000C94B1000C94B1000C94B1000C94B1008C
:100030000C94B1000C94B1000C94B1000C94B1007C
:100040000C9457060C94B1000C94B1000C94B100C0
:100050000C94B1000C94B1000C94B1000C94B1005C
:100060000C94B1000C94B1000100010001000100EA
:100070000200020002000300030004000400050067
:1000800006000700080009000B000C000E0011001C
:100090001300160019001D00220027002D00340057
:1000A0003C0045004F005B00690079008C00A10016
:1000B000B900D500F5001A0144017501AE01EE0149
:1000C00039028F02F2026303E6037C042905F0057E
:1000D000D506DD070C09690AFB0BC90DDD0F4012BF
:1000E00000152A18CE1BFF1F1E054405B4056D061A
:1000F0006E07B4083C0A010C010E3410961221154B
:10010000CD17961A721D5C204B2338261C29EF2B25
:10011000AB2E4731BE330A362438073AAE3B153D85
:10012000393E163FAB3FF63F11241FBECFEFD8E05C
:10013000DEBFCDBF12E0A0E0B1E0E4EEF2E202C02B
:1001400005900D92AC30B107D9F722E0ACE0B2E0F7
:1001500001C01D92A33AB207E1F70E943E0B0C9436
:1001600070110C9400008F929F92AF92BF92CF9229
:10017000DF92EF92FF920F931F93CF93DF938C0147
:1001800040E050E0403251050CF045C0EA01CC0F90
:10019000DD1FC00FD11FA881B9819D010E94C40C31
:1001A0004B015C01E0E4F0E0E41BF50BEE0FFF1FF8
:1001B000E00FF11FA081B1819D010E94C40C860E49
:1001C000971EA81EB91E072E7EE0B594A79497949B
:1001D00087947A95D1F7702D80E090E08034910576
:1001E00084F4FC01EE0FFF1FE859FF4FC590D49037
:1001F000E12CF12CC814D904EA04FB0414F4019690
:10020000EDCF8034910511F48FE390E099838883DA
:100210004F5F5F4FB7CFDF91CF911F910F91FF904D
:10022000EF90DF90CF90BF90AF909F908F90089508
:100230002F923F924F925F926F927F928F929F92F6
:10024000AF92BF92CF92DF92EF92FF920F931F93E4
:10025000CF93DF93CDB7DEB7A3970FB6F894DEBF89
:100260000FBECDBF2C0120E030E040E050E0403434
:1002700051055CF5241735079CF0D901AA0FBB1F67
:10028000A40DB51D8D919C911197FA01EE0FFF1FE2
:10029000E40DF51D608171816D937C939183808362
:1002A00080E290E02817390744F0181619062CF45C
:1002B000281B390B95958795F5CF280F391F4F5F70
:1002C0005F4FD5CF6E8C7F8C04C01D8E66246394E7
:1002D000712C20E46216710408F026C2F301EE0FBF
:1002E000FF1FFF8FEE8FF88BEF87FD8D8F2F90E034
:1002F000880F991FFC01E75EFE4F20813181A90123
:10030000330F660B770B4B8B5C8B6D8B7E8BFC01FD
:10031000E35FFE4F808191819C01990F440B550B47
:100320002F8B388F498F5A8FED8DEF5FED8F40E027
:1003300050E02F853889403451054CF5F301E40F26
:10034000F51FEE0FFF1FE40DF51D608171817A83AB
:100350006983DA01AA0FBB1FA40DB51D6D917C91B5
:10036000119789819A81681B790B759567957183BF
:1003700060838D919C911197E981FA818E0F9F1F67
:10038000959587958D939C93420F531FD4CFF3E09F
:100390006F16710408F491C1F3013297F9A3E8A331
:1003A0002F89388D498D5A8D29873A874B875C87ED
:1003B0004B895C896D897E894D835E836F837887E5
:1003C000E1E0F0E0FA8BE98BF301F695E795FC8F1D
:1003D000EB8F29893A892E173F0708F06EC133E069
:1003E0006316710408F413C1E8A1F9A1FE87ED8733
:1003F000E1E0F0E0FA8BE98BEB8DFC8D29893A89FD
:100400002E173F0708F003C1190131E42316310408
:100410000CF0A4C08301020D131DF801EE0FFF1FA5
:10042000AF01440D551D5BA34AA3FA018080918062
:10043000092C000CAA08BB082D813E814F815885EC
:10044000C501B4010E948C0C6B017C01ED85FE8519
:100450000E0F1F1F000F111F040D151DD8018D91C8
:100460009C919C01990F440B550B29833A834B8334
:100470005C8329853A854B855C8569817A818B818E
:100480009C810E948C0CDC01CB018C0D9D1DAE1D4E
:10049000BF1D6C017D010B2EBBE0F594E794D79452
:1004A000C794BA95D1F7B02DC501B4010E948C0C48
:1004B0004B015C012D813E814F81588569817A8194
:1004C0008B819C810E948C0CA5019401261B370B0B
:1004D000480B590B49015A01072E7BE0B594A794AC
:1004E000979487947A95D1F7702DC101880F991F41
:1004F000840D951DDC012D913C91359527952C1986
:100500003D09EAA1FBA131832083ED85FE85E20D43
:10051000F31DEE0FFF1FE40DF51D20813181359590
:10052000279528193909D8012D933C93DC016D9149
:100530007C911197759567956C0D7D1D6D937C93DE
:100540002081318135952795C401820F931F9183B6
:100550008083EF85F8892E0E3F1E57CF2D813E8177
:100560004F8158856B897C898D899E890E948C0C6E
:100570006B017C0129853A854B855C856F89788D77
:10058000898D9A8D0E948C0CC61AD70AE80AF90A3E
:100590006B897C898D899E890E948C0C4B015C0142
:1005A0002D813E814F8158856F89788D898D9A8DF7
:1005B0000E948C0C860E971EA81EB91EA5019401E0
:1005C000012E1AE055954795379527951A95D1F73D
:1005D000102D29873A874B875C87ED85FE853297FA
:1005E000FE87ED87E989FA893196FA8BE98BA701B5
:1005F0009601012E1AE055954795379527951A953E
:10060000D1F7102D2D833E834F835887F5CE2D8152
:100610003E814F8158856B897C898D899E890E9496
:100620008C0C6B017C0129853A854B855C856F8933
:10063000788D898D9A8D0E948C0C46015701861AFF
:10064000970AA80AB90A6B897C898D899E890E94BC
:100650008C0C6B017C012D813E814F8158856F8907
:10066000788D898D9A8D0E948C0CC60ED71EE81E3F
:10067000F91EB701A601032E3AE0759567955795C7
:1006800047953A95D1F7302D49875A876B877C87F4
:10069000E989FA893196FA8BE98BA5019401012E3B
:1006A0001AE055954795379527951A95D1F7102D4E
:1006B0002D833E834F83588787CE32E063167104C3
:1006C00008F400CEA301569547952F85388940340C
:1006D00051050CF0F7CDF301E40FF51FEE0FFF1FEE
:1006E000E40DF51D608171817A836983DA01AA0FB7
:1006F000BB1FA40DB51D6D917C91119789819A81C5
:10070000681B790B75956795718360838D919C91BA
:100710001197E981FA818E0F9F1F959587958D938B
:100720009C93420F531FD3CFA3960FB6F894DEBF0E
:100730000FBECDBFDF91CF911F910F91FF90EF9032
:10074000DF90CF90BF90AF909F908F907F906F90F1
:100750005F904F903F902F900895EF92FF920F93EC
:100760001F93CF93DF93EC0140E050E0E12CF12C9C
:1007700080E2E816F1042CF58A01000F111F0C0F1E
:100780001D1FF801A081B181F701EE0FFF1FE85195
:10079000FF4F259134910E94DB0CDC01CB01072E29
:1007A0007EE0B595A795979587957A95D1F7702DA9
:1007B000F801918380834F5F5F4FFFEFEF1AFF0ACD
:1007C000D7CF0F2EFFE1EF2EF12CF02DFF202CF1D3
:1007D0008A01000F111F0C0F1D1FF801A081B181AC
:1007E000F701EE0FFF1FE851FF4F259134910E9452
:1007F000DB0CDC01CB01072E7EE0B595A795979524
:1008000087957A95D1F7702DF801918380834F5F9A
:100810005F4FF1E0EF1AF108D9CFDF91CF911F912F
:100820000F91FF90EF900895ECE7F0E080818064F5
:100830008083EAE7F0E08081876880830895ECE7B1
:10084000F0E09081907F8F70892B8083EAE7F0E061
:1008500080818064808380917A0086FDFCCF8091C6
:100860007800909179000895EF92FF920F931F9373
:10087000CF93DF9318160CF077C0EA018B0181FF4C
:100880002BC084E60E94CB0A282F30E0D8014C917F
:10089000429FC001439F900D1124EFEFF0E0BF0194
:1008A0000E94B00C6883D80111964C91429FC00100
:1008B000439F900D1124BF010E94B00C6983D801A1
:1008C00012964C91429FC001439F900D1124BF018D
:1008D0000E94B00C6A8348C080FF04C0CA010E9415
:1008E000E10542C082FF37C0FB01908180910C027C
:1008F000899FC0011124EFEFF0E0BF010E94B00C0E
:10090000688320910C02E22EF12CD80111963C91C3
:100910003E9DC0013F9D900D1124BF010E94B00C6F
:100920006983D80112963C913E9DC0013F9D900D78
:100930001124BF010E94B00C6A8398958091060132
:10094000280F20930C02989521502E3F68F0819536
:100950008093060109C083FF07C0FB018081888363
:100960008181898382818A83DF91CF911F910F9149
:10097000FF90EF9008951F920F920FB60F921124DF
:100980008F9389B18F910F900FBE0F901F90189584
:100990008AB18AB98BB18C638BB90895CF93DF93F9
:1009A00099B1936C20910D0280910701C92FC22348
:1009B000C823892B80930701CC2329F0822F8095AF
:1009C0008C238093070130910701D22FD32380918C
:1009D0000801892B809580930D0290930801811165
:1009E00003C0CC2309F44DC029B11F923F931F923D
:1009F000CF931F928F931F929F931F922F9385E205
:100A000091E09F938F930E94380D80910D022DB736
:100A10003EB7245F3F4F0FB6F8943EBF0FBE2DBFC9
:100A2000982F947082FF02C0C5FD1CC02C2F24702B
:100A3000C2FF02C085FD18C0992311F0C4FD16C085
:100A4000222311F084FD14C0911114C0211114C08F
:100A5000C3FD14C0D4FD14C08D2F8072D5FF11C00A
:100A600085E00FC083E00DC083E00BC086E009C0C5
:100A700086E007C080E005C081E003C082E001C0DD
:100A800084E0DF91CF910895DF92EF92FF920F9370
:100A90001F93CF93DF9300D000D000D0CDB7DEB747
:100AA0007C011A82198220E02230B0F4E22FF0E0BB
:100AB000EE0FFF1FE25FFD4F808191818C97918344
:100AC00080831816190634F449815A81840F951FC2
:100AD0009A8389832F5FE8CF82E0873080F4E82F04
:100AE000F0E0EE0FFF1FE25FFD4F20813181498171
:100AF0005A81240F351F3A8329838F5FEECF1C82E2
:100B00001B8288E08B3080F4E82FF0E0EE0FFF1FAF
:100B1000E25FFD4F208131814B815C81240F351FC5
:100B20003C832B838F5FEECF1E821D828BE08F3143
:100B300080F4E82FF0E0EE0FFF1FE25FFD4F208111
:100B400031814D815E81240F351F3E832D838F5F60
:100B5000EECFD12C82E08D1530F1ED2DF0E0EE0FCF
:100B6000FF1F81E090E08C0F9D1FE80FF91F80812F
:100B700091818F3F910539F034F08FEFF701ED0D42
:100B8000F11D80830EC00FEF10E020E030E040E860
:100B900050E060E070E00E943D06F701ED0DF11DB0
:100BA0008083D394D7CF26960FB6F894DEBF0FBEBE
:100BB000CDBFDF91CF911F910F91FF90EF90DF900C
:100BC00008950F931F93CF93DF938C01F894C0E0A7
:100BD000D0E0C034D10564F480E00E941F04FE011F
:100BE000EE0FFF1FE25FFD4F918380832196F1CFCF
:100BF000789480E090E0803491058CF4FC01EE0F55
:100C0000FF1FE25FFD4F2081318122953295307FB9
:100C10003227207F3227318320830196ECCF8EE06C
:100C200092E00E94AD038EE092E00E9418018EE0F7
:100C300092E00E94B300C8010E944405DF91CF9169
:100C40001F910F9108950F931F93FC01E61BF70B63
:100C5000021B130BE09FC001E19F900DF09F900DD0
:100C60001124FA01E61BF70BBF010E949C0CC9017D
:100C7000860F971F1F910F9108950F931F93FC01EB
:100C8000E61BF70B021B130BE09FC001E19F900DC9
:100C9000F09F900D1124FA01E61BF70BBF010E9493
:100CA000B00CC901860F971F1F910F9108951F92D5
:100CB0000F920FB60F9211242F938F939F93AF93A0
:100CC000BF938091900290919102A0919202B09175
:100CD00093020196A11DB11D809390029093910201
:100CE000A0939202B093930280919002909191020E
:100CF000A0919202B091930288389341A105B10569
:100D000048F1109290021092910210929202109269
:100D1000930280918F028F5F80938F0280918F0268
:100D2000823051F0833071F0813091F480918E02E5
:100D3000816080938E020EC080918E0282608093CB
:100D40008E0208C080918E02846080938E0202C061
:100D500010928F02BF91AF919F918F912F910F9021
:100D60000FBE0F901F90189584B1826084B917BC94
:100D700085B5816085BD81E080936E00089582E035
:100D800090E090930A01809309010895FF920F93D8
:100D90001F93CF93DF938C01D62FC42FF52E0E9483
:100DA000760980EA0E9495098F2D0E9495098C2F63
:100DB0000E949509C0E0CD1740F4F801EC0FF11D39
:100DC00080810E949509CF5FF6CF0E949109DF9143
:100DD000CF911F910F91FF9008954091090150917B
:100DE0000A014D3F2FE7520770F463E00E94C606E8
:100DF0008091090190910A01039690930A018093D2
:100E0000090181E0089580E0089540E050E062E04B
:100E100089E091E00E94C6060895FF920F931F9308
:100E2000CF93DF93C82FF92E8B01D42F0E94760920
:100E300080EA0E9495098F2D0E9495098C2F0E94AF
:100E400095090E94760981EA0E949509C0E08D2FDC
:100E500090E001972C2F30E0281739073CF4C801A7
:100E60008C0F911D0E94C009CF5FF1CF8D2F90E0B4
:100E70000197800F911F0E94B4090E949109DF9190
:100E8000CF911F910F91FF90089520910B01309108
:100E90000C014091090150910A012417350778F49B
:100EA000BC0143E0C9010E940D0780910B019091A4
:100EB0000C01039690930C0180930B01089582E03E
:100EC00090E090930C0180930B01089542E069E05B
:100ED00071E080E090E00E940D07809109019091FF
:100EE0000A018F3F9F4730F082E090E090930A0123
:100EF0008093090108950E946B090E946607089576
:100F0000F999FECF682F80E090E00E942B110895A0
:100F1000CF93DF93EC01F999FECF688183E090E0F5
:100F20000E942B11698185E090E00E942B116A815B
:100F300084E090E00E942B11DF91CF9108950F93F0
:100F40001F93CF93DF938C01EB01F999FECF80E0E3
:100F500090E00E942311F801808383E090E00E94DA
:100F60002311888385E090E00E942311898384E027
:100F700090E00E9423118A83F80180818D3010F067
:100F800081E080838881811106C09981911103C01D
:100F90009A81992341F0882351F08981882339F07F
:100FA0008A81882321F08FEF88831A821982DF914A
:100FB000CF911F910F910895FC0190819F3F49F4BB
:100FC00081818F3F31F02281211103C0815F8183B4
:100FD0000895992349F081818F3F31F482818111F5
:100FE00003C09F5090830895911109C081818F3F64
:100FF00031F482818F3F19F0815F828308959111CE
:1010000009C08181882331F022812F3F19F48F504C
:10101000818308959F3F49F08181811106C08281BB
:101020008F3F19F4915F908308959F3F41F4818130
:10103000811105C08281882311F08F508283089529
:10104000FC0190819F3F49F48181882331F0228106
:10105000211103C08F50818308959F3F49F0818102
:101060008F3F31F48281811103C0915F9083089595
:10107000911109C081818F3F31F48281882319F059
:101080008F5082830895911109C081818F3F31F083
:1010900022812F3F19F4815F81830895992349F0BC
:1010A0008181811106C082818F3F19F49F50908306
:1010B00008959F3F41F48181811105C082818F3F56
:1010C00011F0815F828308952F923F924F925F9239
:1010D0006F927F928F929F92AF92BF92CF92DF9248
:1010E000EF92FF920F931F93CF93DF9300D0CDB772
:1010F000DEB7882309F46AC09A8289822501160125
:10110000580149013A016B01843041F4C7010E9442
:10111000DC07C701E981FA81099558C0853041F49F
:10112000C7010E942008C701E981FA8109954EC0D4
:10113000813069F4FA01808180588083F9018081CF
:1011400080588083F8018081805880833FC0FB01F4
:101150009081292F30E0F901EE0FFF1FEE0FFF1FE6
:10116000EE0FFF1FE21BF30BE459FE4FE80FF11DDA
:101170008081FB018083082F10E09801220F331F2C
:10118000020F131F00541E4F981701F1F5018081C3
:10119000813019F4E98DFA8D0995F8018081F30108
:1011A0008083F8018181F4018083F8018281F50157
:1011B0008083813019F4EF89F88D0995F6018081DB
:1011C000F2010995F6018081F10109950F900F90C8
:1011D000DF91CF911F910F91FF90EF90DF90CF9013
:1011E000BF90AF909F908F907F906F905F904F9047
:1011F0003F902F900895CF93DC01CC91EC2FF0E03D
:10120000DF01AA0FBB1FAE0FBF1FA054BE4F129627
:10121000AC91A130B1F4C150FC01C083EC2FF0E0DF
:10122000CF01880F991FE80FF91FE054FE4F80810E
:10123000DB018C938181DA018C938281F9018083B7
:1012400010C0CF01880F991FE80FF91FE054FE4F1F
:101250008081DB018C938181DA018C938281F90199
:101260008083CF91089588B1886088B988B1877FDD
:1012700088B90895CF9388B18D7F88B9C0E0C73011
:1012800020F40E943309CF5FFACF88B1826088B919
:101290000E94330988B18D7F88B9CF910895CF938B
:1012A00088B1826088B9C0E0C83020F40E94330958
:1012B000CF5FFACF88B18D7F88B9CF91089587B17C
:1012C0008E6087B988B1817F88B988B1846088B918
:1012D0000E944F0908951092B9008CE08093B800E5
:1012E000ECEBF0E0808184608083089584EA809351
:1012F000BC008091BC008823E4F78091B900887F0E
:10130000883071F0803161F01F928F9384EE91E00C
:101310009F938F930E94380D0F900F900F900F9016
:10132000089584E98093BC0008958093BB0084E80D
:101330008093BC008091BC008823E4F78091B900C1
:10134000887F883281F0883171F0803461F01F929B
:101350008F9386EF91E09F938F930E94380D0F90AB
:101360000F900F900F900895FC0184E88093BC00CB
:101370009091BC009923E4F78091BB00808308958D
:10138000FC0184EC8093BC009091BC009923E4F7AD
:101390008091BB00808308959091C00095FFFCCFA1
:1013A0008093C60080E090E00895CF93BC019091B7
:1013B000C0009923E4F7C091C600CD3009F4CAE01B
:1013C0008C2F0E94CC098C2F90E0CF910895109221
:1013D000C50089E18093C40088E18093C10065ED78
:1013E00079E08CEC99E00E94ED0C9093950280934B
:1013F000940290939C0280939B02089584B1826032
:1014000084B984B1886084B98AB180648AB984B5AA
:10141000816884BDE0E8F0E0808181688083E0EB52
:10142000F0E080818168808385B5816085BDE1E8D9
:10143000F0E0808181608083E1EBF0E08081816079
:1014400080830E945F09089590E0981708F042C0D9
:1014500090FD02C093FF11C02FEF27BD1092B30083
:1014600010928900109288002FE936E841E021505F
:1014700030404040E1F700C0000091FD02C093FF02
:1014800012C02FEF30E03093890020938800109233
:10149000B30017BC2FE936E841E02150304040400E
:1014A000E1F700C0000092FD02C093FF11C02FEFD2
:1014B0002093B300109289001092880017BC2FE986
:1014C00036E841E0215030404040E1F700C00000E4
:1014D0009F5FBBCF1092B3001092890010928800DA
:1014E00017BC08950F931F93CF9318160CF04FC09D
:1014F000F9018A01C62F80FF0DC0FA01808187BDE6
:10150000818190E09093890080938800828180930C
:10151000B30010C081FF0EC0CA010995F801808197
:1015200087BD818190E090938900809388008281BB
:101530008093B300C23019F580919602C81731F03C
:101540000E943A0910929802109297028091970295
:10155000853188F0809198028F5F80939802843063
:1015600018F40E94330904C00E943A0910929802AC
:10157000109297020AC08F5F8093970206C08091F5
:101580009602823011F40E944F09C0939602CF91C7
:101590001F910F910895CF92DF92EF92FF920F93D8
:1015A0001F93CF93DF93082FF89410E0C12CD12C18
:1015B00076011017A0F480E00E941F04EC01C7011F
:1015C000B6010E94C70B6C177D0738F4BE0180E09E
:1015D00090E00E94FD0B6B017C011F5FEACF7894C5
:1015E00020E030E04BE953E4C701B6010E94C20B92
:1015F00088236CF1C701B6010E94CE0BDC01CB0140
:101600000FEF10E020E030E04FEF53E066E371E0D1
:101610000E942306BC0180E090E00E94FD0B6B015C
:101620007C0120E030E04FE753E40E94870C18165D
:1016300044F40F2EC12CD12CFFE7EF2EF3E4FF2E44
:10164000F02DC701B6010E94CE0B862F01C080E0AD
:10165000DF91CF911F910F91FF90EF90DF90CF908E
:1016600008950E94B4060E94FE090E9414040E947C
:10167000E7090E94C8040E947B070895CF93DF9377
:10168000CDB7DEB72A970FB6F894DEBF0FBECDBF39
:101690000E94310B19821A821B82BE016F5F7F4F3D
:1016A000CE0104960E949F079E01295F3F4FAE0125
:1016B0004A5F5F4FBE016B5F7F4FCE0104960E9471
:1016C000FB08789480918E0280FF21C018861986CD
:1016D0001A86AE01485F5F4FBE016F5F7F4F8D81FD
:1016E0000E94340425E437E0AE01485F5F4F6F810C
:1016F0008E810E94720A8F81813021F4CE0108967A
:101700000E94ED0680918E028E7F80938E028091E2
:101710008E0281FFD7CF0E94CE0425E037E03F93B1
:101720002F932FEB36E03F932F930F2EF8E88F2E59
:10173000F7E09F2EF02D0F2EF0E8AF2EF7E0BF2E32
:10174000F02D0F2EF4E2CF2EFAE0DF2EF02D9E01C9
:101750002F5F3F4F79018E01095F1F4F2B5F3F4F76
:10176000AE014B5F5F4FBE016C5F7F4F0E9464080C
:1017700080918E028D7F80938E020F900F900F903C
:101780000F90A0CF0E943A0C08F481E008950E94C7
:10179000CE0B6894B1110C94810C08950E94660CD4
:1017A00088F09F5798F0B92F9927B751B0F0E1F022
:1017B000660F771F881F991F1AF0BA95C9F714C0D2
:1017C000B13091F00E94800CB1E008950C94800C2F
:1017D000672F782F8827B85F39F0B93FCCF386950B
:1017E00077956795B395D9F73EF490958095709568
:1017F00061957F4F8F4F9F4F0895E89409C097FBE5
:101800003EF490958095709561957F4F8F4F9F4FD7
:101810009923A9F0F92F96E9BB279395F69587951B
:1018200077956795B795F111F8CFFAF4BB0F11F4DE
:1018300060FF1BC06F5F7F4F8F4F9F4F16C0882385
:1018400011F096E911C0772321F09EE8872F762FBB
:1018500005C0662371F096E8862F70E060E02AF0FC
:101860009A95660F771F881FDAF7880F96958795E8
:1018700097F90895990F0008550FAA0BE0E8FEEFBD
:1018800016161706E807F907C0F012161306E40744
:10189000F50798F0621B730B840B950B39F40A263D
:1018A00061F0232B242B252B21F408950A2609F41B
:1018B000A140A6958FEF811D811D089557FD905879
:1018C000440F551F59F05F3F71F04795880F97FB04
:1018D000991F61F09F3F79F08795089512161306BE
:1018E0001406551FF2CF4695F1DF08C016161706ED
:1018F0001806991FF1CF8695710561050894089522
:10190000E894BB2766277727CB0197F908950E94B3
:101910003A0C08F48FEF0895DB018F939F930E9498
:10192000E20CBF91AF91A29F800D911DA39F900DDE
:10193000B29F900D11240895AA1BBB1B51E107C053
:10194000AA1FBB1FA617B70710F0A61BB70B881F4F
:10195000991F5A95A9F780959095BC01CD010895DE
:1019600097FB072E16F4009407D077FD09D00E944C
:101970009C0C07FC05D03EF4909581959F4F0895EF
:10198000709561957F4F08950E94CC0C332312F41B
:101990008A1B9B0B0C94DD0CA29FB001B39FC0016E
:1019A000A39F700D811D1124911DB29F700D811D8B
:1019B0001124911D08950E94CC0CB7FF0895821B3D
:1019C000930B08950E94CC0CA59F900DB49F900D91
:1019D000A49F800D911D112408950F931F93CF9301
:1019E000DF93009731F46115710519F480E090E000
:1019F0003AC08B01EC016EE070E081E090E00E9463
:101A00002F0FFC01892B91F380E8838301151105C9
:101A100071F01387028781E8838380919902909106
:101A20009A02892B21F4F0939A02E093990220976D
:101A3000C9F0D187C08783818260838380919B02B4
:101A400090919C02892B71F4F0939C02E0939B028D
:101A500080919D0290919E02892B21F4F0939E0229
:101A6000E0939D02CF01DF91CF911F910F910895D7
:101A7000A0E0B0E0EEE3FDE00C944911AE014B5F55
:101A80005F4FFA0161917191AF0180919B0290913A
:101A90009C020E944E0DE2E00C946511ABE0B0E0B8
:101AA000E4E5FDE00C9439116C017B018A01FC0135
:101AB00017821682838181FFCCC1CE0101963C0141
:101AC000F6019381F70193FD859193FF81917F0149
:101AD000882309F4BAC1853239F493FD859193FFC7
:101AE00081917F01853229F4B60190E00E9489102E
:101AF000E7CF912C212C312CFFE1F315D8F08B325C
:101B000079F038F4803279F08332A1F4232D20610A
:101B10001DC08D3261F0803369F4232D216016C021
:101B2000832D8260382EE32DE4603E2E2AC0F32DF3
:101B3000F8601DC037FC2DC020ED280F2A3040F082
:101B40008E32B9F436FC81C1232D2064322E19C0A7
:101B500036FE06C08AE0989E200D1124922E11C0F8
:101B6000EAE02E9E200D1124222EF32DF0623F2E4E
:101B700008C08C3621F4832D8068382E02C0883648
:101B800041F4F70193FD859193FF81917F018111CC
:101B9000B3CF982F9F7D9554933028F40C5F1F4F3F
:101BA0009FE399830DC0833631F0833771F083351D
:101BB00009F059C021C0F801808189830E5F1F4F51
:101BC00088248394912C530113C02801F2E04F0E16
:101BD000511CF801A080B18036FE03C0692D70E071
:101BE00002C06FEF7FEFC5010E947E104C018201A1
:101BF000F32DFF773F2E16C0280122E0420E511C24
:101C0000F801A080B18036FE03C0692D70E002C0EB
:101C10006FEF7FEFC5010E946C104C01F32DF0684F
:101C20003F2E820133FC1BC0822D90E0881699065E
:101C3000B0F4B60180E290E00E9489102A94F4CFBB
:101C4000F50137FC859137FE81915F01B60190E087
:101C50000E94891021102A9421E0821A910881148F
:101C6000910471F7E8C0843611F0893641F5F80126
:101C700037FE07C060817181828193810C5F1F4FA5
:101C800008C060817181072E000C880B990B0E5FD4
:101C90001F4FF32DFF763F2E97FF09C0909580953B
:101CA000709561957F4F8F4F9F4FF0683F2E2AE0D0
:101CB00030E0A3010E94C510882E861845C08537E4
:101CC00031F4232D2F7EB22E2AE030E025C0932D53
:101CD000997FB92E8F36C1F018F4883579F0B5C0E8
:101CE000803719F0883721F0B0C0E92FE061BE2EAF
:101CF000B4FE0DC0FB2DF460BF2E09C034FE0AC037
:101D0000292F2660B22E06C028E030E005C020E171
:101D100030E002C020E132E0F801B7FE07C0608188
:101D20007181828193810C5F1F4F06C06081718138
:101D300080E090E00E5F1F4FA3010E94C510882E27
:101D40008618FB2DFF773F2E36FE0DC0232D2E7FEC
:101D5000A22E891458F434FE0BC032FC09C0832D26
:101D60008E7EA82E05C0B82CA32C03C0B82C01C0B1
:101D7000B92CA4FE0FC0FE01E80DF11D8081803357
:101D800021F49A2D997EA92E09C0A2FE06C0B39413
:101D9000B39404C08A2D867809F0B394A3FC11C0D3
:101DA000A0FE06C0B21488F4280C922C9B180EC01A
:101DB000B21460F4B60180E290E00E948910B394FE
:101DC000F7CFB21418F42B1802C0982C212CA4FEC3
:101DD00010C0B60180E390E00E948910A2FE17C0F7
:101DE000A1FC03C088E790E002C088E590E0B6015E
:101DF0000CC08A2D867859F0A1FE02C08BE201C08A
:101E000080E2A7FC8DE2B60190E00E94891089145F
:101E100038F4B60180E390E00E9489109A94F7CFDD
:101E20008A94F301E80DF11D8081B60190E00E94D3
:101E300089108110F5CF222009F442CEB60180E24C
:101E400090E00E9489102A94F6CFF601868197814E
:101E500002C08FEF9FEF2B96E2E10C9455110F9388
:101E60001F93CF93DF93869F8001879F100D969FCE
:101E7000100D1124C8010E944B0FEC01009729F0AE
:101E8000A80160E070E00E947710CE01DF91CF9151
:101E90001F910F9108950F931F93CF93DF9382307B
:101EA000910510F482E090E0E091A102F091A2028D
:101EB00020E030E0A0E0B0E0309719F1408151819E
:101EC0000281138148175907C8F08417950769F4F0
:101ED000109731F012960C93129713961C9327C00B
:101EE0000093A1021093A20222C02115310519F01E
:101EF0004217530718F49A01BD01EF01DF01F80101
:101F0000DBCF21153105F9F0281B390B24303105C1
:101F100080F48A819B816115710521F0FB01938317
:101F2000828304C09093A2028093A102FE013296A4
:101F300044C0FE01E20FF31F8193919322503109B7
:101F4000398328833AC020919F023091A002232B2D
:101F500041F420910201309103013093A0022093BB
:101F60009F0220910001309101012115310541F4BA
:101F70002DB73EB74091040150910501241B350B4C
:101F8000E0919F02F091A002E217F307A0F42E1B4C
:101F90003F0B2817390778F0AC014E5F5F4F2417CD
:101FA000350748F04E0F5F1F5093A00240939F02E9
:101FB0008193919302C0E0E0F0E0CF01DF91CF91F7
:101FC0001F910F910895CF93DF93009709F481C07B
:101FD000FC01329713821282A091A102B091A20259
:101FE000109781F420813181820F931F20919F02ED
:101FF0003091A0022817390751F5F093A002E09321
:102000009F0267C0ED0120E030E0CE17DF0740F40B
:102010004A815B819E0141155105F1F0EA01F5CF3E
:10202000D383C28340815181840F951FC817D9077C
:1020300059F488819981840F951F0296918380833A
:102040008A819B81938382832115310529F4F09342
:10205000A202E093A1023DC0E901FB83EA8349911A
:102060005991C40FD51FEC17FD0761F48081918150
:10207000840F951F0296E901998388838281938159
:102080009B838A83E0E0F0E012968D919C911397F8
:10209000009719F0FD01DC01F7CF8D919C9111970C
:1020A0009D012E5F3F4F820F931F20919F02309121
:1020B000A0022817390769F4309729F41092A20278
:1020C0001092A10202C013821282B093A002A093C8
:1020D0009F02DF91CF910895FC01059061507040FF
:1020E0000110D8F7809590958E0F9F1F0895DC0101
:1020F00001C06D9341505040E0F70895FC016150DC
:10210000704001900110D8F7809590958E0F9F1F19
:1021100008950F931F93CF93DF93FB01238121FD3C
:1021200003C08FEF9FEF2CC022FF16C0468157815E
:10213000248135814217530744F4A081B1819D0168
:102140002F5F3F4F318320838C93268137812F5F10
:102150003F4F3783268314C08B01EC01FB010084C1
:10216000F185E02D0995892BE1F6D80116968D9120
:102170009C911797019617969C938E931697CE0174
:10218000DF91CF911F910F910895FA01AA2728306E
:1021900051F1203181F1E8946F936E7F6E5F7F4F34
:1021A0008F4F9F4FAF4FB1E03ED0B4E03CD0670FB0
:1021B000781F891F9A1FA11D680F791F8A1F911D03
:1021C000A11D6A0F711D811D911DA11D20D009F453
:1021D00068943F912AE0269F11243019305D319395
:1021E000DEF6CF010895462F4770405D4193B3E07E
:1021F0000FD0C9F7F6CF462F4F70405D4A3318F025
:10220000495D31FD4052419302D0A9F7EACFB4E0D5
:10221000A6959795879577956795BA95C9F700978D
:102220006105710508959B01AC010A2E069457952E
:10223000479537952795BA95C9F7620F731F841F85
:10224000951FA01D0895F999FECF92BD81BDF89A02
:10225000992780B50895262FF999FECF1FBA92BD10
:1022600081BD20BD0FB6F894FA9AF99A0FBE019677
:1022700008952F923F924F925F926F927F928F922A
:102280009F92AF92BF92CF92DF92EF92FF920F9305
:102290001F93CF93DF93CDB7DEB7CA1BDB0B0FB60F
:1022A000F894DEBF0FBECDBF09942A8839884888CC
:1022B0005F846E847D848C849B84AA84B984C88462
:1022C000DF80EE80FD800C811B81AA81B981CE0F59
:1022D000D11D0FB6F894DEBF0FBECDBFED0108953E
:0422E000F894FFCFA0
:1022E4000000A302200005FF3C02000200000000E1
:1022F40004D4028701C700640000FC0000D402B2C9
:1023040003EC03FB0370696E73202D2025692C20D8
:1023140063757272656E74202D2025692C2070728D
:102324006573736564202D2025692C20756E707289
:102334006573736564202D2025692C20666F726295
:10234400696464656E202D2025690A00000003027B
:102354000000010101010101010002020500020265
:10236400020303060503030404040404040403052C
:1023740005070305050506060807060606070709F7
:102384000607070708080A0908080809090B0809C5
:1023940009090A0A000B0A0A0A0B0B020A0B0B0BA7
:1023A4000101000101010101020201000201010217
:1023B40001020401000401020801000801020002F4
:1023C400000002027374617274206572726F723A53
:1023D4002025782E20007472616E736D69742065F7
:0C23E40072726F723A2025782E200000E3
:00000001FF
